{
  "_format": "hh-sol-artifact-1",
  "contractName": "CoffeeFund",
  "sourceName": "contracts/CoffeeFund.sol",
  "abi": [
    {
      "inputs": [],
      "stateMutability": "nonpayable",
      "type": "constructor"
    },
    {
      "anonymous": false,
      "inputs": [
        {
          "indexed": false,
          "internalType": "address",
          "name": "sender",
          "type": "address"
        },
        {
          "indexed": false,
          "internalType": "uint256",
          "name": "amount",
          "type": "uint256"
        },
        {
          "indexed": false,
          "internalType": "string",
          "name": "from",
          "type": "string"
        },
        {
          "indexed": false,
          "internalType": "string",
          "name": "message",
          "type": "string"
        }
      ],
      "name": "CoffeeBought",
      "type": "event"
    },
    {
      "anonymous": false,
      "inputs": [
        {
          "indexed": false,
          "internalType": "uint256",
          "name": "amount",
          "type": "uint256"
        }
      ],
      "name": "CoffeeFundWithdrawn",
      "type": "event"
    },
    {
      "anonymous": false,
      "inputs": [
        {
          "indexed": true,
          "internalType": "address",
          "name": "previousOwner",
          "type": "address"
        },
        {
          "indexed": true,
          "internalType": "address",
          "name": "newOwner",
          "type": "address"
        }
      ],
      "name": "OwnershipTransferred",
      "type": "event"
    },
    {
      "inputs": [
        {
          "internalType": "string",
          "name": "from",
          "type": "string"
        },
        {
          "internalType": "string",
          "name": "message",
          "type": "string"
        }
      ],
      "name": "buyCoffee",
      "outputs": [],
      "stateMutability": "payable",
      "type": "function"
    },
    {
      "inputs": [],
      "name": "getMemos",
      "outputs": [
        {
          "components": [
            {
              "internalType": "address",
              "name": "sender",
              "type": "address"
            },
            {
              "internalType": "uint256",
              "name": "amount",
              "type": "uint256"
            },
            {
              "internalType": "string",
              "name": "from",
              "type": "string"
            },
            {
              "internalType": "string",
              "name": "message",
              "type": "string"
            }
          ],
          "internalType": "struct CoffeeFund.Memo[]",
          "name": "",
          "type": "tuple[]"
        }
      ],
      "stateMutability": "view",
      "type": "function"
    },
    {
      "inputs": [],
      "name": "owner",
      "outputs": [
        {
          "internalType": "address",
          "name": "",
          "type": "address"
        }
      ],
      "stateMutability": "view",
      "type": "function"
    },
    {
      "inputs": [],
      "name": "renounceOwnership",
      "outputs": [],
      "stateMutability": "nonpayable",
      "type": "function"
    },
    {
      "inputs": [
        {
          "internalType": "address",
          "name": "newOwner",
          "type": "address"
        }
      ],
      "name": "transferOwnership",
      "outputs": [],
      "stateMutability": "nonpayable",
      "type": "function"
    },
    {
      "inputs": [],
      "name": "withdraw",
      "outputs": [],
      "stateMutability": "nonpayable",
      "type": "function"
    }
  ],
  "bytecode": "0x608060405234801561001057600080fd5b5061002d61002261003260201b60201c565b61003a60201b60201c565b6100fe565b600033905090565b60008060009054906101000a900473ffffffffffffffffffffffffffffffffffffffff169050816000806101000a81548173ffffffffffffffffffffffffffffffffffffffff021916908373ffffffffffffffffffffffffffffffffffffffff1602179055508173ffffffffffffffffffffffffffffffffffffffff168173ffffffffffffffffffffffffffffffffffffffff167f8be0079c531659141344cd1fd0a4f28419497f9722a3daafe3b4186f6b6457e060405160405180910390a35050565b6111bd8061010d6000396000f3fe6080604052600436106100555760003560e01c8063204206e11461005a5780633ccfd60b14610076578063715018a61461008d578063865c5172146100a45780638da5cb5b146100cf578063f2fde38b146100fa575b600080fd5b610074600480360381019061006f919061089e565b610123565b005b34801561008257600080fd5b5061008b610288565b005b34801561009957600080fd5b506100a2610357565b005b3480156100b057600080fd5b506100b961036b565b6040516100c69190610b1b565b60405180910390f35b3480156100db57600080fd5b506100e461054e565b6040516100f19190610b4c565b60405180910390f35b34801561010657600080fd5b50610121600480360381019061011c9190610b93565b610577565b005b60003411610166576040517f08c379a000000000000000000000000000000000000000000000000000000000815260040161015d90610c43565b60405180910390fd5b600160405180608001604052803373ffffffffffffffffffffffffffffffffffffffff16815260200134815260200184815260200183815250908060018154018082558091505060019003906000526020600020906004020160009091909190915060008201518160000160006101000a81548173ffffffffffffffffffffffffffffffffffffffff021916908373ffffffffffffffffffffffffffffffffffffffff16021790555060208201518160010155604082015181600201908161022e9190610e6f565b5060608201518160030190816102449190610e6f565b5050507fe1497ffe633e98a3901f52e9a648f2c65efc249858d55ffa768c029ad8f9c64b3334848460405161027c9493929190610f89565b60405180910390a15050565b6102906105fa565b6000479050600081116102d8576040517f08c379a00000000000000000000000000000000000000000000000000000000081526004016102cf9061104e565b60405180910390fd5b6102e061054e565b73ffffffffffffffffffffffffffffffffffffffff166108fc829081150290604051600060405180830381858888f1935050505061031d57600080fd5b7fbe588a460c0c5ae3e239b2986a12c0467364723c726f0164ed1c1ca3486aace88160405161034c919061106e565b60405180910390a150565b61035f6105fa565b6103696000610678565b565b60606001805480602002602001604051908101604052809291908181526020016000905b8282101561054557838290600052602060002090600402016040518060800160405290816000820160009054906101000a900473ffffffffffffffffffffffffffffffffffffffff1673ffffffffffffffffffffffffffffffffffffffff1673ffffffffffffffffffffffffffffffffffffffff1681526020016001820154815260200160028201805461042290610c92565b80601f016020809104026020016040519081016040528092919081815260200182805461044e90610c92565b801561049b5780601f106104705761010080835404028352916020019161049b565b820191906000526020600020905b81548152906001019060200180831161047e57829003601f168201915b505050505081526020016003820180546104b490610c92565b80601f01602080910402602001604051908101604052809291908181526020018280546104e090610c92565b801561052d5780601f106105025761010080835404028352916020019161052d565b820191906000526020600020905b81548152906001019060200180831161051057829003601f168201915b5050505050815250508152602001906001019061038f565b50505050905090565b60008060009054906101000a900473ffffffffffffffffffffffffffffffffffffffff16905090565b61057f6105fa565b600073ffffffffffffffffffffffffffffffffffffffff168173ffffffffffffffffffffffffffffffffffffffff16036105ee576040517f08c379a00000000000000000000000000000000000000000000000000000000081526004016105e5906110fb565b60405180910390fd5b6105f781610678565b50565b61060261073c565b73ffffffffffffffffffffffffffffffffffffffff1661062061054e565b73ffffffffffffffffffffffffffffffffffffffff1614610676576040517f08c379a000000000000000000000000000000000000000000000000000000000815260040161066d90611167565b60405180910390fd5b565b60008060009054906101000a900473ffffffffffffffffffffffffffffffffffffffff169050816000806101000a81548173ffffffffffffffffffffffffffffffffffffffff021916908373ffffffffffffffffffffffffffffffffffffffff1602179055508173ffffffffffffffffffffffffffffffffffffffff168173ffffffffffffffffffffffffffffffffffffffff167f8be0079c531659141344cd1fd0a4f28419497f9722a3daafe3b4186f6b6457e060405160405180910390a35050565b600033905090565b6000604051905090565b600080fd5b600080fd5b600080fd5b600080fd5b6000601f19601f8301169050919050565b7f4e487b7100000000000000000000000000000000000000000000000000000000600052604160045260246000fd5b6107ab82610762565b810181811067ffffffffffffffff821117156107ca576107c9610773565b5b80604052505050565b60006107dd610744565b90506107e982826107a2565b919050565b600067ffffffffffffffff82111561080957610808610773565b5b61081282610762565b9050602081019050919050565b82818337600083830152505050565b600061084161083c846107ee565b6107d3565b90508281526020810184848401111561085d5761085c61075d565b5b61086884828561081f565b509392505050565b600082601f83011261088557610884610758565b5b813561089584826020860161082e565b91505092915050565b600080604083850312156108b5576108b461074e565b5b600083013567ffffffffffffffff8111156108d3576108d2610753565b5b6108df85828601610870565b925050602083013567ffffffffffffffff811115610900576108ff610753565b5b61090c85828601610870565b9150509250929050565b600081519050919050565b600082825260208201905092915050565b6000819050602082019050919050565b600073ffffffffffffffffffffffffffffffffffffffff82169050919050565b600061096d82610942565b9050919050565b61097d81610962565b82525050565b6000819050919050565b61099681610983565b82525050565b600081519050919050565b600082825260208201905092915050565b60005b838110156109d65780820151818401526020810190506109bb565b60008484015250505050565b60006109ed8261099c565b6109f781856109a7565b9350610a078185602086016109b8565b610a1081610762565b840191505092915050565b6000608083016000830151610a336000860182610974565b506020830151610a46602086018261098d565b5060408301518482036040860152610a5e82826109e2565b91505060608301518482036060860152610a7882826109e2565b9150508091505092915050565b6000610a918383610a1b565b905092915050565b6000602082019050919050565b6000610ab182610916565b610abb8185610921565b935083602082028501610acd85610932565b8060005b85811015610b095784840389528151610aea8582610a85565b9450610af583610a99565b925060208a01995050600181019050610ad1565b50829750879550505050505092915050565b60006020820190508181036000830152610b358184610aa6565b905092915050565b610b4681610962565b82525050565b6000602082019050610b616000830184610b3d565b92915050565b610b7081610962565b8114610b7b57600080fd5b50565b600081359050610b8d81610b67565b92915050565b600060208284031215610ba957610ba861074e565b5b6000610bb784828501610b7e565b91505092915050565b600082825260208201905092915050565b7f5472616e7366657220616d6f756e74206d75737420626520677265617465722060008201527f7468616e20300000000000000000000000000000000000000000000000000000602082015250565b6000610c2d602683610bc0565b9150610c3882610bd1565b604082019050919050565b60006020820190508181036000830152610c5c81610c20565b9050919050565b7f4e487b7100000000000000000000000000000000000000000000000000000000600052602260045260246000fd5b60006002820490506001821680610caa57607f821691505b602082108103610cbd57610cbc610c63565b5b50919050565b60008190508160005260206000209050919050565b60006020601f8301049050919050565b600082821b905092915050565b600060088302610d257fffffffffffffffffffffffffffffffffffffffffffffffffffffffffffffffff82610ce8565b610d2f8683610ce8565b95508019841693508086168417925050509392505050565b6000819050919050565b6000610d6c610d67610d6284610983565b610d47565b610983565b9050919050565b6000819050919050565b610d8683610d51565b610d9a610d9282610d73565b848454610cf5565b825550505050565b600090565b610daf610da2565b610dba818484610d7d565b505050565b5b81811015610dde57610dd3600082610da7565b600181019050610dc0565b5050565b601f821115610e2357610df481610cc3565b610dfd84610cd8565b81016020851015610e0c578190505b610e20610e1885610cd8565b830182610dbf565b50505b505050565b600082821c905092915050565b6000610e4660001984600802610e28565b1980831691505092915050565b6000610e5f8383610e35565b9150826002028217905092915050565b610e788261099c565b67ffffffffffffffff811115610e9157610e90610773565b5b610e9b8254610c92565b610ea6828285610de2565b600060209050601f831160018114610ed95760008415610ec7578287015190505b610ed18582610e53565b865550610f39565b601f198416610ee786610cc3565b60005b82811015610f0f57848901518255600182019150602085019450602081019050610eea565b86831015610f2c5784890151610f28601f891682610e35565b8355505b6001600288020188555050505b505050505050565b610f4a81610983565b82525050565b6000610f5b8261099c565b610f658185610bc0565b9350610f758185602086016109b8565b610f7e81610762565b840191505092915050565b6000608082019050610f9e6000830187610b3d565b610fab6020830186610f41565b8181036040830152610fbd8185610f50565b90508181036060830152610fd18184610f50565b905095945050505050565b7f43616e6e6f742077697468647261772066726f6d20616e20656d70747920636f60008201527f666665652066756e640000000000000000000000000000000000000000000000602082015250565b6000611038602983610bc0565b915061104382610fdc565b604082019050919050565b600060208201905081810360008301526110678161102b565b9050919050565b60006020820190506110836000830184610f41565b92915050565b7f4f776e61626c653a206e6577206f776e657220697320746865207a65726f206160008201527f6464726573730000000000000000000000000000000000000000000000000000602082015250565b60006110e5602683610bc0565b91506110f082611089565b604082019050919050565b60006020820190508181036000830152611114816110d8565b9050919050565b7f4f776e61626c653a2063616c6c6572206973206e6f7420746865206f776e6572600082015250565b6000611151602083610bc0565b915061115c8261111b565b602082019050919050565b6000602082019050818103600083015261118081611144565b905091905056fea26469706673582212209e866230e97468d61ba3a762783840d9b9ebb2e5847ad01f889a9bef5e11485c64736f6c63430008110033",
  "linkReferences": {},
  "deployedLinkReferences": {}
}